{
  "_format": "hh-sol-artifact-1",
  "contractName": "FundMe",
  "sourceName": "contracts/FundMe.sol",
  "abi": [
    {
      "inputs": [
        {
          "internalType": "address",
          "name": "_priceFeed",
          "type": "address"
        }
      ],
      "stateMutability": "nonpayable",
      "type": "constructor"
    },
    {
      "inputs": [],
      "name": "FundMe__NotOwner",
      "type": "error"
    },
    {
      "inputs": [],
      "name": "cheaperWithdraw",
      "outputs": [],
      "stateMutability": "payable",
      "type": "function"
    },
    {
      "inputs": [],
      "name": "fund",
      "outputs": [],
      "stateMutability": "payable",
      "type": "function"
    },
    {
      "inputs": [
        {
          "internalType": "address",
          "name": "funder",
          "type": "address"
        }
      ],
      "name": "getAmountFunded",
      "outputs": [
        {
          "internalType": "uint256",
          "name": "",
          "type": "uint256"
        }
      ],
      "stateMutability": "view",
      "type": "function"
    },
    {
      "inputs": [
        {
          "internalType": "uint256",
          "name": "index",
          "type": "uint256"
        }
      ],
      "name": "getFunder",
      "outputs": [
        {
          "internalType": "address",
          "name": "",
          "type": "address"
        }
      ],
      "stateMutability": "view",
      "type": "function"
    },
    {
      "inputs": [],
      "name": "getFunders",
      "outputs": [
        {
          "internalType": "address[]",
          "name": "",
          "type": "address[]"
        }
      ],
      "stateMutability": "view",
      "type": "function"
    },
    {
      "inputs": [],
      "name": "getOwner",
      "outputs": [
        {
          "internalType": "address",
          "name": "",
          "type": "address"
        }
      ],
      "stateMutability": "view",
      "type": "function"
    },
    {
      "inputs": [],
      "name": "getPriceFeed",
      "outputs": [
        {
          "internalType": "address",
          "name": "",
          "type": "address"
        }
      ],
      "stateMutability": "view",
      "type": "function"
    },
    {
      "inputs": [],
      "name": "withdraw",
      "outputs": [],
      "stateMutability": "payable",
      "type": "function"
    }
  ],
  "bytecode": "0x60a06040523480156200001157600080fd5b506040516200135f3803806200135f833981810160405281019062000037919062000120565b80600260006101000a81548173ffffffffffffffffffffffffffffffffffffffff021916908373ffffffffffffffffffffffffffffffffffffffff1602179055503373ffffffffffffffffffffffffffffffffffffffff1660808173ffffffffffffffffffffffffffffffffffffffff1660601b815250505062000152565b600080fd5b600073ffffffffffffffffffffffffffffffffffffffff82169050919050565b6000620000e882620000bb565b9050919050565b620000fa81620000db565b81146200010657600080fd5b50565b6000815190506200011a81620000ef565b92915050565b600060208284031215620001395762000138620000b6565b5b6000620001498482850162000109565b91505092915050565b60805160601c6111e06200017f6000396000818161019b0152818161037701526105e401526111e06000f3fe60806040526004361061007b5760003560e01c8063b60d42881161004e578063b60d42881461011d578063be2693f014610127578063d7b4750c14610131578063ea63a0441461016e5761007b565b80633ccfd60b14610080578063893d20e81461008a5780639e87a5cd146100b5578063a48b4555146100e0575b600080fd5b610088610199565b005b34801561009657600080fd5b5061009f610373565b6040516100ac9190610b42565b60405180910390f35b3480156100c157600080fd5b506100ca61039b565b6040516100d79190610b42565b60405180910390f35b3480156100ec57600080fd5b5061010760048036038101906101029190610b8e565b6103c5565b6040516101149190610bd4565b60405180910390f35b61012561040d565b005b61012f6105e2565b005b34801561013d57600080fd5b5061015860048036038101906101539190610c1b565b610820565b6040516101659190610b42565b60405180910390f35b34801561017a57600080fd5b50610183610868565b6040516101909190610d06565b60405180910390f35b7f000000000000000000000000000000000000000000000000000000000000000073ffffffffffffffffffffffffffffffffffffffff163373ffffffffffffffffffffffffffffffffffffffff161461021e576040517f579610db00000000000000000000000000000000000000000000000000000000815260040160405180910390fd5b3373ffffffffffffffffffffffffffffffffffffffff166108fc479081150290604051600060405180830381858888f19350505050158015610264573d6000803e3d6000fd5b5060005b6001805490508110156103105760006001828154811061028b5761028a610d28565b5b9060005260206000200160009054906101000a900473ffffffffffffffffffffffffffffffffffffffff16905060008060008373ffffffffffffffffffffffffffffffffffffffff1673ffffffffffffffffffffffffffffffffffffffff1681526020019081526020016000208190555050808061030890610d86565b915050610268565b50600067ffffffffffffffff81111561032c5761032b610dcf565b5b60405190808252806020026020018201604052801561035a5781602001602082028036833780820191505090505b5060019080519060200190610370929190610a5a565b50565b60007f0000000000000000000000000000000000000000000000000000000000000000905090565b6000600260009054906101000a900473ffffffffffffffffffffffffffffffffffffffff16905090565b60008060008373ffffffffffffffffffffffffffffffffffffffff1673ffffffffffffffffffffffffffffffffffffffff168152602001908152602001600020549050919050565b60006802b5e3af16b1880000905080610451600260009054906101000a900473ffffffffffffffffffffffffffffffffffffffff16346108f690919063ffffffff16565b1015610492576040517f08c379a000000000000000000000000000000000000000000000000000000000815260040161048990610e5b565b60405180910390fd5b346000803373ffffffffffffffffffffffffffffffffffffffff1673ffffffffffffffffffffffffffffffffffffffff16815260200190815260200160002060008282546104e09190610e7b565b92505081905550610577600180548060200260200160405190810160405280929190818152602001828054801561056c57602002820191906000526020600020905b8160009054906101000a900473ffffffffffffffffffffffffffffffffffffffff1673ffffffffffffffffffffffffffffffffffffffff1681526020019060010190808311610522575b505050505033610932565b6105df576001339080600181540180825580915050600190039060005260206000200160009091909190916101000a81548173ffffffffffffffffffffffffffffffffffffffff021916908373ffffffffffffffffffffffffffffffffffffffff1602179055505b50565b7f000000000000000000000000000000000000000000000000000000000000000073ffffffffffffffffffffffffffffffffffffffff163373ffffffffffffffffffffffffffffffffffffffff1614610667576040517f579610db00000000000000000000000000000000000000000000000000000000815260040160405180910390fd5b3373ffffffffffffffffffffffffffffffffffffffff166108fc479081150290604051600060405180830381858888f193505050501580156106ad573d6000803e3d6000fd5b506000600180548060200260200160405190810160405280929190818152602001828054801561073257602002820191906000526020600020905b8160009054906101000a900473ffffffffffffffffffffffffffffffffffffffff1673ffffffffffffffffffffffffffffffffffffffff16815260200190600101908083116106e8575b5050505050905060005b81518110156107bc57600082828151811061075a57610759610d28565b5b6020026020010151905060008060008373ffffffffffffffffffffffffffffffffffffffff1673ffffffffffffffffffffffffffffffffffffffff168152602001908152602001600020819055505080806107b490610d86565b91505061073c565b50600067ffffffffffffffff8111156107d8576107d7610dcf565b5b6040519080825280602002602001820160405280156108065781602001602082028036833780820191505090505b506001908051906020019061081c929190610a5a565b5050565b60006001828154811061083657610835610d28565b5b9060005260206000200160009054906101000a900473ffffffffffffffffffffffffffffffffffffffff169050919050565b606060018054806020026020016040519081016040528092919081815260200182805480156108ec57602002820191906000526020600020905b8160009054906101000a900473ffffffffffffffffffffffffffffffffffffffff1673ffffffffffffffffffffffffffffffffffffffff16815260200190600101908083116108a2575b5050505050905090565b600080610902836109ba565b90506000670de0b6b3a7640000858361091b9190610ed1565b6109259190610f5a565b9050809250505092915050565b600080600090505b83518110156109ae578273ffffffffffffffffffffffffffffffffffffffff1684828151811061096d5761096c610d28565b5b602002602001015173ffffffffffffffffffffffffffffffffffffffff16141561099b5760019150506109b4565b80806109a690610d86565b91505061093a565b50600090505b92915050565b6000808273ffffffffffffffffffffffffffffffffffffffff1663feaf968c6040518163ffffffff1660e01b815260040160a06040518083038186803b158015610a0357600080fd5b505afa158015610a17573d6000803e3d6000fd5b505050506040513d601f19601f82011682018060405250810190610a3b9190611018565b5050509150506402540be40081610a529190611093565b915050919050565b828054828255906000526020600020908101928215610ad3579160200282015b82811115610ad25782518260006101000a81548173ffffffffffffffffffffffffffffffffffffffff021916908373ffffffffffffffffffffffffffffffffffffffff16021790555091602001919060010190610a7a565b5b509050610ae09190610ae4565b5090565b5b80821115610afd576000816000905550600101610ae5565b5090565b600073ffffffffffffffffffffffffffffffffffffffff82169050919050565b6000610b2c82610b01565b9050919050565b610b3c81610b21565b82525050565b6000602082019050610b576000830184610b33565b92915050565b600080fd5b610b6b81610b21565b8114610b7657600080fd5b50565b600081359050610b8881610b62565b92915050565b600060208284031215610ba457610ba3610b5d565b5b6000610bb284828501610b79565b91505092915050565b6000819050919050565b610bce81610bbb565b82525050565b6000602082019050610be96000830184610bc5565b92915050565b610bf881610bbb565b8114610c0357600080fd5b50565b600081359050610c1581610bef565b92915050565b600060208284031215610c3157610c30610b5d565b5b6000610c3f84828501610c06565b91505092915050565b600081519050919050565b600082825260208201905092915050565b6000819050602082019050919050565b610c7d81610b21565b82525050565b6000610c8f8383610c74565b60208301905092915050565b6000602082019050919050565b6000610cb382610c48565b610cbd8185610c53565b9350610cc883610c64565b8060005b83811015610cf9578151610ce08882610c83565b9750610ceb83610c9b565b925050600181019050610ccc565b5085935050505092915050565b60006020820190508181036000830152610d208184610ca8565b905092915050565b7f4e487b7100000000000000000000000000000000000000000000000000000000600052603260045260246000fd5b7f4e487b7100000000000000000000000000000000000000000000000000000000600052601160045260246000fd5b6000610d9182610bbb565b91507fffffffffffffffffffffffffffffffffffffffffffffffffffffffffffffffff821415610dc457610dc3610d57565b5b600182019050919050565b7f4e487b7100000000000000000000000000000000000000000000000000000000600052604160045260246000fd5b600082825260208201905092915050565b7f596f75206e65656420746f207370656e64206d6f726520455448210000000000600082015250565b6000610e45601b83610dfe565b9150610e5082610e0f565b602082019050919050565b60006020820190508181036000830152610e7481610e38565b9050919050565b6000610e8682610bbb565b9150610e9183610bbb565b9250827fffffffffffffffffffffffffffffffffffffffffffffffffffffffffffffffff03821115610ec657610ec5610d57565b5b828201905092915050565b6000610edc82610bbb565b9150610ee783610bbb565b9250817fffffffffffffffffffffffffffffffffffffffffffffffffffffffffffffffff0483118215151615610f2057610f1f610d57565b5b828202905092915050565b7f4e487b7100000000000000000000000000000000000000000000000000000000600052601260045260246000fd5b6000610f6582610bbb565b9150610f7083610bbb565b925082610f8057610f7f610f2b565b5b828204905092915050565b600069ffffffffffffffffffff82169050919050565b610faa81610f8b565b8114610fb557600080fd5b50565b600081519050610fc781610fa1565b92915050565b6000819050919050565b610fe081610fcd565b8114610feb57600080fd5b50565b600081519050610ffd81610fd7565b92915050565b60008151905061101281610bef565b92915050565b600080600080600060a0868803121561103457611033610b5d565b5b600061104288828901610fb8565b955050602061105388828901610fee565b945050604061106488828901611003565b935050606061107588828901611003565b925050608061108688828901610fb8565b9150509295509295909350565b600061109e82610fcd565b91506110a983610fcd565b9250827f7fffffffffffffffffffffffffffffffffffffffffffffffffffffffffffffff04821160008413600084131616156110e8576110e7610d57565b5b817f8000000000000000000000000000000000000000000000000000000000000000058312600084126000841316161561112557611124610d57565b5b827f8000000000000000000000000000000000000000000000000000000000000000058212600084136000841216161561116257611161610d57565b5b827f7fffffffffffffffffffffffffffffffffffffffffffffffffffffffffffffff058212600084126000841216161561119f5761119e610d57565b5b82820290509291505056fea2646970667358221220e3ee9d7d15e822119cbbe630e64211f9c2f47c83489af3275ca1bf32c6a5f20e64736f6c63430008080033",
  "linkReferences": {},
  "deployedLinkReferences": {}
}